{
  "contractName": "CeightTokenWhitelist",
  "abi": [
    {
      "inputs": [],
      "payable": false,
      "stateMutability": "nonpayable",
      "type": "constructor"
    },
    {
      "constant": false,
      "inputs": [],
      "name": "register",
      "outputs": [],
      "payable": false,
      "stateMutability": "nonpayable",
      "type": "function"
    },
    {
      "constant": false,
      "inputs": [],
      "name": "unregister",
      "outputs": [],
      "payable": false,
      "stateMutability": "nonpayable",
      "type": "function"
    },
    {
      "constant": true,
      "inputs": [
        {
          "name": "anAddress",
          "type": "address"
        }
      ],
      "name": "isRegistered",
      "outputs": [
        {
          "name": "registered",
          "type": "bool"
        }
      ],
      "payable": false,
      "stateMutability": "view",
      "type": "function"
    }
  ],
  "bytecode": "0x608060405234801561001057600080fd5b50336000806101000a81548173ffffffffffffffffffffffffffffffffffffffff021916908373ffffffffffffffffffffffffffffffffffffffff16021790555061029e806100606000396000f300608060405260043610610057576000357c0100000000000000000000000000000000000000000000000000000000900463ffffffff1680631aa3a0081461005c578063c3c5a54714610073578063e79a198f146100ce575b600080fd5b34801561006857600080fd5b506100716100e5565b005b34801561007f57600080fd5b506100b4600480360381019080803573ffffffffffffffffffffffffffffffffffffffff16906020019092919050505061016a565b604051808215151515815260200191505060405180910390f35b3480156100da57600080fd5b506100e36101ec565b005b600180600033604051808273ffffffffffffffffffffffffffffffffffffffff1673ffffffffffffffffffffffffffffffffffffffff166c0100000000000000000000000002815260140191505060405180910390206000191660001916815260200190815260200160002060006101000a81548160ff021916908315150217905550565b60006001600083604051808273ffffffffffffffffffffffffffffffffffffffff1673ffffffffffffffffffffffffffffffffffffffff166c0100000000000000000000000002815260140191505060405180910390206000191660001916815260200190815260200160002060009054906101000a900460ff169050919050565b60006001600033604051808273ffffffffffffffffffffffffffffffffffffffff1673ffffffffffffffffffffffffffffffffffffffff166c0100000000000000000000000002815260140191505060405180910390206000191660001916815260200190815260200160002060006101000a81548160ff0219169083151502179055505600a165627a7a72305820a01cebbad45ef979d4bf43b140890c0b131704b65c8b9c58e9525e1be7bb53360029",
  "source": "pragma solidity ^0.4.23;\r\n\r\ncontract CeightTokenWhitelist {\r\n    address owner;\r\n\r\n    mapping(bytes32 => bool) whitelist;\r\n\r\n    constructor () public {\r\n        owner = msg.sender;\r\n    }\r\n\r\n    function register() external {\r\n        whitelist[keccak256(msg.sender)] = true;\r\n    }\r\n\r\n    function unregister() external {\r\n        whitelist[keccak256(msg.sender)] = false;\r\n    }\r\n\r\n    function isRegistered(address anAddress) public view returns (bool registered) {\r\n        return whitelist[keccak256(anAddress)];\r\n    }\r\n}",
  "sourcePath": "C:\\Users\\Yesugei\\Documents\\GitHub\\wooqii.github.io\\solidity practice\\crowdsale\\contracts\\CeightTokenWhitelist.sol",
  "compiler": {
    "name": "solc",
    "version": "0.4.23+commit.124ca40d.Emscripten.clang"
  },
  "schemaVersion": "2.0.0",
  "updatedAt": "2018-05-18T04:18:46.007Z"
}