{
  "contractName": "CeightTokenSale",
  "abi": [
    {
      "constant": true,
      "inputs": [],
      "name": "hongsRaised",
      "outputs": [
        {
          "name": "",
          "type": "uint256"
        }
      ],
      "payable": false,
      "stateMutability": "view",
      "type": "function"
    },
    {
      "constant": true,
      "inputs": [],
      "name": "HARD_CAP",
      "outputs": [
        {
          "name": "",
          "type": "uint256"
        }
      ],
      "payable": false,
      "stateMutability": "view",
      "type": "function"
    },
    {
      "constant": true,
      "inputs": [],
      "name": "HONGS_PER_WEI",
      "outputs": [
        {
          "name": "",
          "type": "uint256"
        }
      ],
      "payable": false,
      "stateMutability": "view",
      "type": "function"
    },
    {
      "constant": true,
      "inputs": [],
      "name": "whitelist",
      "outputs": [
        {
          "name": "",
          "type": "address"
        }
      ],
      "payable": false,
      "stateMutability": "view",
      "type": "function"
    },
    {
      "constant": true,
      "inputs": [],
      "name": "token",
      "outputs": [
        {
          "name": "",
          "type": "address"
        }
      ],
      "payable": false,
      "stateMutability": "view",
      "type": "function"
    },
    {
      "inputs": [
        {
          "name": "_token",
          "type": "address"
        },
        {
          "name": "_whitelist",
          "type": "address"
        }
      ],
      "payable": false,
      "stateMutability": "nonpayable",
      "type": "constructor"
    },
    {
      "payable": true,
      "stateMutability": "payable",
      "type": "fallback"
    }
  ],
  "bytecode": "0x608060405234801561001057600080fd5b506040516040806106bf8339810180604052810190808051906020019092919080519060200190929190505050600073ffffffffffffffffffffffffffffffffffffffff168273ffffffffffffffffffffffffffffffffffffffff161415151561007957600080fd5b816000806101000a81548173ffffffffffffffffffffffffffffffffffffffff021916908373ffffffffffffffffffffffffffffffffffffffff16021790555080600160006101000a81548173ffffffffffffffffffffffffffffffffffffffff021916908373ffffffffffffffffffffffffffffffffffffffff16021790555050506105b48061010b6000396000f30060806040526004361061006d576000357c0100000000000000000000000000000000000000000000000000000000900463ffffffff16806333ad86d5146103825780633a03171c146103ad5780634d7520c6146103d857806393e59dc114610403578063fc0c546a1461045a575b600080600360009054906101000a900460ff1615151561008c57600080fd5b6000341415151561009c57600080fd5b600160009054906101000a900473ffffffffffffffffffffffffffffffffffffffff1673ffffffffffffffffffffffffffffffffffffffff1663c3c5a547336040518263ffffffff167c0100000000000000000000000000000000000000000000000000000000028152600401808273ffffffffffffffffffffffffffffffffffffffff1673ffffffffffffffffffffffffffffffffffffffff168152602001915050602060405180830381600087803b15801561015957600080fd5b505af115801561016d573d6000803e3d6000fd5b505050506040513d602081101561018357600080fd5b8101908080519060200190929190505050151561019f57600080fd5b6101b562989680346104b190919063ffffffff16565b9150600090506601c6bf5263400082600254011115610212576002546601c6bf526340000391506101f262989680836104ec90919063ffffffff16565b340390506001600360006101000a81548160ff0219169083151502179055505b6102278260025461050790919063ffffffff16565b600281905550600081111561027e573373ffffffffffffffffffffffffffffffffffffffff166108fc829081150290604051600060405180830381858888f1935050505015801561027c573d6000803e3d6000fd5b505b6000809054906101000a900473ffffffffffffffffffffffffffffffffffffffff1673ffffffffffffffffffffffffffffffffffffffff1663a9059cbb33846040518363ffffffff167c0100000000000000000000000000000000000000000000000000000000028152600401808373ffffffffffffffffffffffffffffffffffffffff1673ffffffffffffffffffffffffffffffffffffffff16815260200182815260200192505050602060405180830381600087803b15801561034257600080fd5b505af1158015610356573d6000803e3d6000fd5b505050506040513d602081101561036c57600080fd5b8101908080519060200190929190505050505050005b34801561038e57600080fd5b50610397610525565b6040518082815260200191505060405180910390f35b3480156103b957600080fd5b506103c261052b565b6040518082815260200191505060405180910390f35b3480156103e457600080fd5b506103ed610536565b6040518082815260200191505060405180910390f35b34801561040f57600080fd5b5061041861053d565b604051808273ffffffffffffffffffffffffffffffffffffffff1673ffffffffffffffffffffffffffffffffffffffff16815260200191505060405180910390f35b34801561046657600080fd5b5061046f610563565b604051808273ffffffffffffffffffffffffffffffffffffffff1673ffffffffffffffffffffffffffffffffffffffff16815260200191505060405180910390f35b60008060008414156104c657600091506104e5565b82840290508284828115156104d757fe5b041415156104e157fe5b8091505b5092915050565b60008082848115156104fa57fe5b0490508091505092915050565b600080828401905083811015151561051b57fe5b8091505092915050565b60025481565b6601c6bf5263400081565b6298968081565b600160009054906101000a900473ffffffffffffffffffffffffffffffffffffffff1681565b6000809054906101000a900473ffffffffffffffffffffffffffffffffffffffff16815600a165627a7a723058201fb6ba358da9f37bc76ee07f1a39355f314ec7a8b1db2c60bbbbc41dac7ce0850029",
  "source": "pragma solidity ^0.4.23;\r\n\r\nimport \"./CeightToken.sol\";\r\nimport \"./CeightTokenWhitelist.sol\";\r\n// import \"./SafeMath.sol\";;\r\nimport \"zeppelin-solidity/contracts/math/SafeMath.sol\";\r\n\r\ncontract CeightTokenSale {\r\n    uint public constant HONGS_PER_WEI = 10000000;\r\n    uint public constant HARD_CAP = 500000000000000;\r\n    CeightToken public token;\r\n    CeightTokenWhitelist public whitelist;\r\n    uint public hongsRaised;\r\n    bool private closed;\r\n    using SafeMath for uint256;\r\n\r\n    constructor (\r\n        CeightToken _token, \r\n        CeightTokenWhitelist _whitelist\r\n    ) public {\r\n        require(_token != address(0));\r\n        token = _token;\r\n        whitelist = _whitelist;\r\n    }\r\n\r\n    function () external payable {\r\n        require(!closed);\r\n        require(msg.value != 0);        \r\n        require(whitelist.isRegistered(msg.sender));\r\n\r\n        uint hongsToTransfer = msg.value.mul(HONGS_PER_WEI);\r\n        uint weisToRefund = 0;\r\n        if (hongsRaised + hongsToTransfer > HARD_CAP) {\r\n            hongsToTransfer = HARD_CAP - hongsRaised;\r\n            weisToRefund = msg.value - hongsToTransfer.div(HONGS_PER_WEI);\r\n            closed = true;\r\n        }\r\n        hongsRaised = hongsRaised.add(hongsToTransfer);\r\n        if (weisToRefund > 0) {\r\n            msg.sender.transfer(weisToRefund);\r\n        }\r\n\r\n        token.transfer(msg.sender, hongsToTransfer);\r\n    }\r\n}",
  "sourcePath": "C:\\Users\\Yesugei\\Documents\\GitHub\\wooqii.github.io\\solidity practice\\crowdsale\\contracts\\CeightTokenSale.sol",
  "compiler": {
    "name": "solc",
    "version": "0.4.23+commit.124ca40d.Emscripten.clang"
  },
  "schemaVersion": "2.0.0",
  "updatedAt": "2018-05-18T04:18:46.014Z"
}